:100000000C9472000C9484000C9484000C94840072
:100010000C9484000C9484000C9484000C94840050
:100020000C9484000C9484000C9484000C94C901FA
:100030000C9484000C9484000C9484000C94840030
:100040000C9484000C9484000C9484000C94840020
:100050000C9484009200AB00C400DD00F500F500B4
:10006000F500F500F500F500F500F500F500F500E8
:10007000F500F500F500F500F500F500F500F500D8
:10008000F500F500F500F500F500F500F500F500C8
:10009000F500F5009200AB00C400DD0002011B0179
:1000A00034014D0165016501650165016501650169
:1000B0006501650165016501650165016501650110
:1000C0006501650165016501650165016501650100
:1000D00065016501650165016501650102011B019D
:1000E00034014D0111241FBECFE5D8E0DEBFCDBFE6
:1000F00020E0A0E6B0E001C01D92A236B207E1F711
:100100000E9472010C946A020C94000090E0FC01C1
:10011000E154F109E432F10508F067C0E65DFF4FF4
:100120000C946402413059F42AB381E090E002C09B
:10013000880F991F6A95E2F7822B8ABB08952AB32C
:1001400081E090E002C0880F991F6A95E2F78095E0
:1001500082238ABB0895413059F427B381E090E0AF
:1001600002C0880F991F6A95E2F7822B87BB08951A
:1001700027B381E090E002C0880F991F6A95E2F7EB
:100180008095822387BB0895413059F424B381E0E0
:1001900090E002C0880F991F6A95E2F7822B84BB1A
:1001A000089524B381E090E002C0880F991F6A95FA
:1001B000E2F78095822384BB0895413059F421B33E
:1001C00081E090E002C0880F991F6A95E2F7822BC8
:1001D00081BB089521B381E090E002C0880F991F90
:1001E0006A95E2F78095822381BB089590E0FC0137
:1001F000E154F109E432F10508F067C0E25BFF4F1A
:100200000C946402413059F42BB381E090E002C0B9
:10021000880F991F6A95E2F7822B8BBB08952BB349
:1002200081E090E002C0880F991F6A95E2F78095FF
:1002300082238BBB0895413059F428B381E090E0CC
:1002400002C0880F991F6A95E2F7822B88BB089538
:1002500028B381E090E002C0880F991F6A95E2F709
:100260008095822388BB0895413059F425B381E0FD
:1002700090E002C0880F991F6A95E2F7822B85BB38
:10028000089525B381E090E002C0880F991F6A9518
:10029000E2F78095822385BB0895413059F422B35B
:1002A00081E090E002C0880F991F6A95E2F7822BE7
:1002B00082BB089522B381E090E002C0880F991FAD
:1002C0006A95E2F78095822382BB089541E00E94FF
:1002D0008600089541E00E94F600089540E00E94E3
:1002E000F600089560E081E60E94660161E081E623
:1002F0000E94660162E081E60E94660163E081E699
:100300000E94660160E875E280E090E00E941702BA
:100310000E943E02863649F128F4823499F18236F1
:1003200069F0F6CF8F36A1F0823719F0873681F762
:100330000AC060E081E60E946A01EACF61E081E6DE
:100340000E946A01E5CF62E081E60E946A01E0CF87
:1003500060E081E60E946A0162E081E60E946A0133
:1003600061E081E60E946A01D3CF60E081E60E94ED
:100370006E0162E081E60E946E0161E081E60E940A
:100380006E01C6CF63E081E60E946A010E9401020D
:10039000BFCF1F920F920FB60F9211242F933F934E
:1003A0004F935F936F937F938F939F93AF93BF937D
:1003B000EF93FF938091600090916100019690937C
:1003C000610080936000C29759F463E081E60E9467
:1003D0006E01109261001092600089B78E7F89BF14
:1003E000FF91EF91BF91AF919F918F917F916F910D
:1003F0005F914F913F912F910F900FBE0F901F90E3
:10040000189583B7877F83BF83B78F7B83BF83B7FD
:10041000816083BF83B78D7F83BF83B7846083BFD1
:10042000789489B7816089BF8CE982BF0895DC0127
:10043000CB01880F991FAA1FBB1F880F991FAA1FE6
:10044000BB1F9C01AD01220F331F441F551F220FFC
:10045000331F441F551F60E072E18AE790E00E945D
:1004600042022150310930BD29B98AB188608AB968
:100470008AB180618AB986E880BD08955F9BFECF0E
:100480008CB10895A1E21A2EAA1BBB1BFD010DC061
:10049000AA1FBB1FEE1FFF1FA217B307E407F50734
:1004A00020F0A21BB30BE40BF50B661F771F881F10
:1004B000991F1A9469F760957095809590959B01A6
:1004C000AC01BD01CF010895EE0FFF1F0590F4911F
:0804D000E02D0994F894FFCF20
:00000001FF
